{
  "_format": "hh-sol-artifact-1",
  "contractName": "FairPayEscrow",
  "sourceName": "contracts/FairPayEscrow.sol",
  "abi": [
    {
      "inputs": [],
      "name": "ClientFreelancerSame",
      "type": "error"
    },
    {
      "inputs": [],
      "name": "DisputeNotResponded",
      "type": "error"
    },
    {
      "inputs": [],
      "name": "DisputePeriodNotElapsed",
      "type": "error"
    },
    {
      "inputs": [],
      "name": "EmptyWorkLink",
      "type": "error"
    },
    {
      "inputs": [],
      "name": "EscrowNotFound",
      "type": "error"
    },
    {
      "inputs": [],
      "name": "FreelancerAlreadyResponded",
      "type": "error"
    },
    {
      "inputs": [],
      "name": "OnlyClient",
      "type": "error"
    },
    {
      "inputs": [],
      "name": "OnlyFreelancer",
      "type": "error"
    },
    {
      "inputs": [],
      "name": "ReentrancyGuardReentrantCall",
      "type": "error"
    },
    {
      "inputs": [],
      "name": "ReviewPeriodNotElapsed",
      "type": "error"
    },
    {
      "inputs": [],
      "name": "TransferFailed",
      "type": "error"
    },
    {
      "inputs": [
        {
          "internalType": "enum State",
          "name": "expected",
          "type": "uint8"
        },
        {
          "internalType": "enum State",
          "name": "actual",
          "type": "uint8"
        }
      ],
      "name": "UnexpectedState",
      "type": "error"
    },
    {
      "inputs": [],
      "name": "WorkDeadlineElapsed",
      "type": "error"
    },
    {
      "inputs": [],
      "name": "WorkDeadlineNotElapsed",
      "type": "error"
    },
    {
      "inputs": [],
      "name": "ZeroAddress",
      "type": "error"
    },
    {
      "inputs": [],
      "name": "ZeroDeposit",
      "type": "error"
    },
    {
      "inputs": [],
      "name": "ZeroPeriod",
      "type": "error"
    },
    {
      "anonymous": false,
      "inputs": [
        {
          "indexed": true,
          "internalType": "uint256",
          "name": "escrowId",
          "type": "uint256"
        },
        {
          "indexed": true,
          "internalType": "address",
          "name": "client",
          "type": "address"
        },
        {
          "indexed": false,
          "internalType": "uint256",
          "name": "amount",
          "type": "uint256"
        }
      ],
      "name": "Approved",
      "type": "event"
    },
    {
      "anonymous": false,
      "inputs": [
        {
          "indexed": true,
          "internalType": "uint256",
          "name": "escrowId",
          "type": "uint256"
        },
        {
          "indexed": true,
          "internalType": "address",
          "name": "client",
          "type": "address"
        },
        {
          "indexed": false,
          "internalType": "uint256",
          "name": "amount",
          "type": "uint256"
        }
      ],
      "name": "Deposited",
      "type": "event"
    },
    {
      "anonymous": false,
      "inputs": [
        {
          "indexed": true,
          "internalType": "uint256",
          "name": "escrowId",
          "type": "uint256"
        },
        {
          "indexed": true,
          "internalType": "address",
          "name": "client",
          "type": "address"
        },
        {
          "indexed": false,
          "internalType": "uint256",
          "name": "amount",
          "type": "uint256"
        }
      ],
      "name": "DisputeApproved",
      "type": "event"
    },
    {
      "anonymous": false,
      "inputs": [
        {
          "indexed": true,
          "internalType": "uint256",
          "name": "escrowId",
          "type": "uint256"
        },
        {
          "indexed": true,
          "internalType": "address",
          "name": "freelancer",
          "type": "address"
        },
        {
          "indexed": false,
          "internalType": "string",
          "name": "proofLink",
          "type": "string"
        }
      ],
      "name": "DisputeProofSubmitted",
      "type": "event"
    },
    {
      "anonymous": false,
      "inputs": [
        {
          "indexed": true,
          "internalType": "uint256",
          "name": "escrowId",
          "type": "uint256"
        },
        {
          "indexed": true,
          "internalType": "address",
          "name": "client",
          "type": "address"
        },
        {
          "indexed": false,
          "internalType": "uint256",
          "name": "disputeDeadline",
          "type": "uint256"
        },
        {
          "indexed": false,
          "internalType": "string",
          "name": "reason",
          "type": "string"
        }
      ],
      "name": "DisputeRaised",
      "type": "event"
    },
    {
      "anonymous": false,
      "inputs": [
        {
          "indexed": true,
          "internalType": "uint256",
          "name": "escrowId",
          "type": "uint256"
        },
        {
          "indexed": true,
          "internalType": "address",
          "name": "caller",
          "type": "address"
        },
        {
          "indexed": false,
          "internalType": "uint256",
          "name": "amount",
          "type": "uint256"
        }
      ],
      "name": "DisputeTimeoutRefunded",
      "type": "event"
    },
    {
      "anonymous": false,
      "inputs": [
        {
          "indexed": true,
          "internalType": "uint256",
          "name": "escrowId",
          "type": "uint256"
        },
        {
          "indexed": true,
          "internalType": "address",
          "name": "caller",
          "type": "address"
        },
        {
          "indexed": false,
          "internalType": "uint256",
          "name": "amount",
          "type": "uint256"
        }
      ],
      "name": "DisputeTimeoutReleased",
      "type": "event"
    },
    {
      "anonymous": false,
      "inputs": [
        {
          "indexed": true,
          "internalType": "uint256",
          "name": "escrowId",
          "type": "uint256"
        },
        {
          "indexed": true,
          "internalType": "address",
          "name": "client",
          "type": "address"
        }
      ],
      "name": "DisputeWithdrawn",
      "type": "event"
    },
    {
      "anonymous": false,
      "inputs": [
        {
          "indexed": true,
          "internalType": "uint256",
          "name": "escrowId",
          "type": "uint256"
        },
        {
          "indexed": true,
          "internalType": "address",
          "name": "client",
          "type": "address"
        },
        {
          "indexed": false,
          "internalType": "uint256",
          "name": "amount",
          "type": "uint256"
        }
      ],
      "name": "EscrowCancelled",
      "type": "event"
    },
    {
      "anonymous": false,
      "inputs": [
        {
          "indexed": true,
          "internalType": "uint256",
          "name": "escrowId",
          "type": "uint256"
        },
        {
          "indexed": true,
          "internalType": "address",
          "name": "client",
          "type": "address"
        },
        {
          "indexed": true,
          "internalType": "address",
          "name": "freelancer",
          "type": "address"
        }
      ],
      "name": "EscrowCreated",
      "type": "event"
    },
    {
      "anonymous": false,
      "inputs": [
        {
          "indexed": true,
          "internalType": "uint256",
          "name": "escrowId",
          "type": "uint256"
        },
        {
          "indexed": true,
          "internalType": "address",
          "name": "freelancer",
          "type": "address"
        },
        {
          "indexed": false,
          "internalType": "uint256",
          "name": "amount",
          "type": "uint256"
        }
      ],
      "name": "RefundAccepted",
      "type": "event"
    },
    {
      "anonymous": false,
      "inputs": [
        {
          "indexed": true,
          "internalType": "uint256",
          "name": "escrowId",
          "type": "uint256"
        },
        {
          "indexed": true,
          "internalType": "address",
          "name": "caller",
          "type": "address"
        },
        {
          "indexed": false,
          "internalType": "uint256",
          "name": "amount",
          "type": "uint256"
        }
      ],
      "name": "ReviewTimeoutClaimed",
      "type": "event"
    },
    {
      "anonymous": false,
      "inputs": [
        {
          "indexed": true,
          "internalType": "uint256",
          "name": "escrowId",
          "type": "uint256"
        },
        {
          "indexed": true,
          "internalType": "address",
          "name": "freelancer",
          "type": "address"
        },
        {
          "indexed": false,
          "internalType": "string",
          "name": "workLink",
          "type": "string"
        }
      ],
      "name": "WorkSubmitted",
      "type": "event"
    },
    {
      "inputs": [
        {
          "internalType": "uint256",
          "name": "escrowId",
          "type": "uint256"
        }
      ],
      "name": "acceptRefund",
      "outputs": [],
      "stateMutability": "nonpayable",
      "type": "function"
    },
    {
      "inputs": [
        {
          "internalType": "uint256",
          "name": "escrowId",
          "type": "uint256"
        }
      ],
      "name": "approve",
      "outputs": [],
      "stateMutability": "nonpayable",
      "type": "function"
    },
    {
      "inputs": [
        {
          "internalType": "uint256",
          "name": "escrowId",
          "type": "uint256"
        }
      ],
      "name": "approveAfterDispute",
      "outputs": [],
      "stateMutability": "nonpayable",
      "type": "function"
    },
    {
      "inputs": [
        {
          "internalType": "uint256",
          "name": "escrowId",
          "type": "uint256"
        }
      ],
      "name": "cancelEscrow",
      "outputs": [],
      "stateMutability": "nonpayable",
      "type": "function"
    },
    {
      "inputs": [
        {
          "internalType": "uint256",
          "name": "escrowId",
          "type": "uint256"
        }
      ],
      "name": "claimAfterDisputeTimeout",
      "outputs": [],
      "stateMutability": "nonpayable",
      "type": "function"
    },
    {
      "inputs": [
        {
          "internalType": "uint256",
          "name": "escrowId",
          "type": "uint256"
        }
      ],
      "name": "claimAfterReviewTimeout",
      "outputs": [],
      "stateMutability": "nonpayable",
      "type": "function"
    },
    {
      "inputs": [
        {
          "internalType": "address",
          "name": "_freelancer",
          "type": "address"
        },
        {
          "internalType": "uint256",
          "name": "_reviewPeriod",
          "type": "uint256"
        },
        {
          "internalType": "uint256",
          "name": "_disputePeriod",
          "type": "uint256"
        },
        {
          "internalType": "uint256",
          "name": "_workDuration",
          "type": "uint256"
        }
      ],
      "name": "createEscrow",
      "outputs": [
        {
          "internalType": "uint256",
          "name": "escrowId",
          "type": "uint256"
        }
      ],
      "stateMutability": "nonpayable",
      "type": "function"
    },
    {
      "inputs": [
        {
          "internalType": "uint256",
          "name": "escrowId",
          "type": "uint256"
        }
      ],
      "name": "deposit",
      "outputs": [],
      "stateMutability": "payable",
      "type": "function"
    },
    {
      "inputs": [
        {
          "internalType": "uint256",
          "name": "escrowId",
          "type": "uint256"
        },
        {
          "internalType": "string",
          "name": "_reason",
          "type": "string"
        }
      ],
      "name": "dispute",
      "outputs": [],
      "stateMutability": "nonpayable",
      "type": "function"
    },
    {
      "inputs": [],
      "name": "escrowCount",
      "outputs": [
        {
          "internalType": "uint256",
          "name": "",
          "type": "uint256"
        }
      ],
      "stateMutability": "view",
      "type": "function"
    },
    {
      "inputs": [
        {
          "internalType": "uint256",
          "name": "escrowId",
          "type": "uint256"
        }
      ],
      "name": "getEscrow",
      "outputs": [
        {
          "components": [
            {
              "internalType": "address",
              "name": "client",
              "type": "address"
            },
            {
              "internalType": "address",
              "name": "freelancer",
              "type": "address"
            },
            {
              "internalType": "uint256",
              "name": "amount",
              "type": "uint256"
            },
            {
              "internalType": "enum State",
              "name": "state",
              "type": "uint8"
            },
            {
              "internalType": "string",
              "name": "workLink",
              "type": "string"
            },
            {
              "internalType": "uint256",
              "name": "submissionTimestamp",
              "type": "uint256"
            },
            {
              "internalType": "uint256",
              "name": "reviewPeriod",
              "type": "uint256"
            },
            {
              "internalType": "uint256",
              "name": "disputePeriod",
              "type": "uint256"
            },
            {
              "internalType": "uint256",
              "name": "workDuration",
              "type": "uint256"
            },
            {
              "internalType": "uint256",
              "name": "workDeadline",
              "type": "uint256"
            },
            {
              "internalType": "uint256",
              "name": "disputeDeadline",
              "type": "uint256"
            },
            {
              "internalType": "bool",
              "name": "disputeResponded",
              "type": "bool"
            },
            {
              "internalType": "string",
              "name": "disputeReason",
              "type": "string"
            },
            {
              "internalType": "string",
              "name": "disputeProof",
              "type": "string"
            }
          ],
          "internalType": "struct Escrow",
          "name": "",
          "type": "tuple"
        }
      ],
      "stateMutability": "view",
      "type": "function"
    },
    {
      "inputs": [
        {
          "internalType": "uint256",
          "name": "escrowId",
          "type": "uint256"
        }
      ],
      "name": "isDisputeTimeoutReached",
      "outputs": [
        {
          "internalType": "bool",
          "name": "",
          "type": "bool"
        }
      ],
      "stateMutability": "view",
      "type": "function"
    },
    {
      "inputs": [
        {
          "internalType": "uint256",
          "name": "escrowId",
          "type": "uint256"
        }
      ],
      "name": "isReviewTimeoutReached",
      "outputs": [
        {
          "internalType": "bool",
          "name": "",
          "type": "bool"
        }
      ],
      "stateMutability": "view",
      "type": "function"
    },
    {
      "inputs": [
        {
          "internalType": "uint256",
          "name": "escrowId",
          "type": "uint256"
        }
      ],
      "name": "isWorkDeadlineElapsed",
      "outputs": [
        {
          "internalType": "bool",
          "name": "",
          "type": "bool"
        }
      ],
      "stateMutability": "view",
      "type": "function"
    },
    {
      "inputs": [
        {
          "internalType": "uint256",
          "name": "escrowId",
          "type": "uint256"
        }
      ],
      "name": "reviewDeadline",
      "outputs": [
        {
          "internalType": "uint256",
          "name": "",
          "type": "uint256"
        }
      ],
      "stateMutability": "view",
      "type": "function"
    },
    {
      "inputs": [
        {
          "internalType": "uint256",
          "name": "escrowId",
          "type": "uint256"
        },
        {
          "internalType": "string",
          "name": "_proofLink",
          "type": "string"
        }
      ],
      "name": "submitDisputeProof",
      "outputs": [],
      "stateMutability": "nonpayable",
      "type": "function"
    },
    {
      "inputs": [
        {
          "internalType": "uint256",
          "name": "escrowId",
          "type": "uint256"
        },
        {
          "internalType": "string",
          "name": "_workLink",
          "type": "string"
        }
      ],
      "name": "submitWork",
      "outputs": [],
      "stateMutability": "nonpayable",
      "type": "function"
    },
    {
      "inputs": [
        {
          "internalType": "uint256",
          "name": "escrowId",
          "type": "uint256"
        }
      ],
      "name": "withdrawDispute",
      "outputs": [],
      "stateMutability": "nonpayable",
      "type": "function"
    }
  ],
  "bytecode": "0x6080604052348015600f57600080fd5b506001602a6020603560201b60201c565b606060201b60201c565b60000181905550606a565b60007f9b779b17422d0df92223018b32b4d1fa46e071723d6817e2486d003becc55f0060001b905090565b6000819050919050565b613c9f806100796000396000f3fe6080604052600436106101095760003560e01c8063675ac67a11610095578063b759f95411610064578063b759f95414610390578063cff5fdd5146103b9578063da8accf9146103e2578063e01824361461040b578063e34fa0f31461043457610109565b8063675ac67a146102cf5780637d19e596146102fa5780638fb1b5d414610337578063b6b55f251461037457610109565b80631bd80eca116100dc5780631bd80eca146101da57806337d5bb64146102175780635d54d44614610240578063615f248c1461027d57806366c85dee146102a657610109565b8063028df0d41461010e578063063ef277146101375780630898a54a14610174578063189510d5146101b1575b600080fd5b34801561011a57600080fd5b506101356004803603810190610130919061320c565b61045d565b005b34801561014357600080fd5b5061015e6004803603810190610159919061320c565b6107af565b60405161016b9190613254565b60405180910390f35b34801561018057600080fd5b5061019b6004803603810190610196919061320c565b61081e565b6040516101a89190613254565b60405180910390f35b3480156101bd57600080fd5b506101d860048036038101906101d3919061320c565b61089c565b005b3480156101e657600080fd5b5061020160048036038101906101fc91906132cd565b610b9f565b60405161020e9190613343565b60405180910390f35b34801561022357600080fd5b5061023e600480360381019061023991906133c3565b610e7a565b005b34801561024c57600080fd5b506102676004803603810190610262919061320c565b611186565b6040516102749190613343565b60405180910390f35b34801561028957600080fd5b506102a4600480360381019061029f919061320c565b6111d0565b005b3480156102b257600080fd5b506102cd60048036038101906102c891906133c3565b611494565b005b3480156102db57600080fd5b506102e46117ab565b6040516102f19190613343565b60405180910390f35b34801561030657600080fd5b50610321600480360381019061031c919061320c565b6117b1565b60405161032e9190613693565b60405180910390f35b34801561034357600080fd5b5061035e6004803603810190610359919061320c565b611b77565b60405161036b9190613254565b60405180910390f35b61038e6004803603810190610389919061320c565b611be6565b005b34801561039c57600080fd5b506103b760048036038101906103b2919061320c565b611ea6565b005b3480156103c557600080fd5b506103e060048036038101906103db919061320c565b6121f8565b005b3480156103ee57600080fd5b50610409600480360381019061040491906133c3565b612620565b005b34801561041757600080fd5b50610432600480360381019061042d919061320c565b612921565b005b34801561044057600080fd5b5061045b6004803603810190610456919061320c565b612cb1565b005b80600073ffffffffffffffffffffffffffffffffffffffff1660008083815260200190815260200160002060000160009054906101000a900473ffffffffffffffffffffffffffffffffffffffff1673ffffffffffffffffffffffffffffffffffffffff16036104f9576040517ff1d80ab100000000000000000000000000000000000000000000000000000000815260040160405180910390fd5b8160008082815260200190815260200160002060010160009054906101000a900473ffffffffffffffffffffffffffffffffffffffff1673ffffffffffffffffffffffffffffffffffffffff163373ffffffffffffffffffffffffffffffffffffffff1614610594576040517f6b7809b900000000000000000000000000000000000000000000000000000000815260040160405180910390fd5b826003600080600084815260200190815260200160002060030160009054906101000a900460ff1690508160048111156105d1576105d0613441565b5b8160048111156105e4576105e3613441565b5b146106285781816040517fcbdafbe700000000000000000000000000000000000000000000000000000000815260040161061f9291906136c4565b60405180910390fd5b61063061304b565b6000806000888152602001908152602001600020905060008160020154905060048260030160006101000a81548160ff0219169083600481111561067757610676613441565b5b02179055506000826002018190555060008260000160009054906101000a900473ffffffffffffffffffffffffffffffffffffffff1673ffffffffffffffffffffffffffffffffffffffff16826040516106d09061371e565b60006040518083038185875af1925050503d806000811461070d576040519150601f19603f3d011682016040523d82523d6000602084013e610712565b606091505b505090508061074d576040517f90b8ec1800000000000000000000000000000000000000000000000000000000815260040160405180910390fd5b3373ffffffffffffffffffffffffffffffffffffffff16897f246c33d75b631ba30ff5f08cc8e224dd3e48015f18a62e7afdd784506148621c846040516107949190613343565b60405180910390a35050506107a761306e565b505050505050565b6000806000808481526020019081526020016000209050600160048111156107da576107d9613441565b5b8160030160009054906101000a900460ff1660048111156107fe576107fd613441565b5b1461080d576000915050610819565b80600901544210159150505b919050565b60008060008084815260200190815260200160002090506002600481111561084957610848613441565b5b8160030160009054906101000a900460ff16600481111561086d5761086c613441565b5b1461087c576000915050610897565b806006015481600501546108909190613762565b4210159150505b919050565b80600073ffffffffffffffffffffffffffffffffffffffff1660008083815260200190815260200160002060000160009054906101000a900473ffffffffffffffffffffffffffffffffffffffff1673ffffffffffffffffffffffffffffffffffffffff1603610938576040517ff1d80ab100000000000000000000000000000000000000000000000000000000815260040160405180910390fd5b816002600080600084815260200190815260200160002060030160009054906101000a900460ff16905081600481111561097557610974613441565b5b81600481111561098857610987613441565b5b146109cc5781816040517fcbdafbe70000000000000000000000000000000000000000000000000000000081526004016109c39291906136c4565b60405180910390fd5b6109d461304b565b60008060008781526020019081526020016000209050806006015481600501546109fe9190613762565b421015610a37576040517ffa6587e100000000000000000000000000000000000000000000000000000000815260040160405180910390fd5b60008160020154905060048260030160006101000a81548160ff02191690836004811115610a6857610a67613441565b5b02179055506000826002018190555060008260010160009054906101000a900473ffffffffffffffffffffffffffffffffffffffff1673ffffffffffffffffffffffffffffffffffffffff1682604051610ac19061371e565b60006040518083038185875af1925050503d8060008114610afe576040519150601f19603f3d011682016040523d82523d6000602084013e610b03565b606091505b5050905080610b3e576040517f90b8ec1800000000000000000000000000000000000000000000000000000000815260040160405180910390fd5b3373ffffffffffffffffffffffffffffffffffffffff16887f05ef16034f499b8bcdf02b0d4fb70953e151aa59a496f32f60b881cc4bc2cebe84604051610b859190613343565b60405180910390a3505050610b9861306e565b5050505050565b60008073ffffffffffffffffffffffffffffffffffffffff168573ffffffffffffffffffffffffffffffffffffffff1603610c06576040517fd92e233d00000000000000000000000000000000000000000000000000000000815260040160405180910390fd5b60008403610c40576040517f586e5acb00000000000000000000000000000000000000000000000000000000815260040160405180910390fd5b60008303610c7a576040517f586e5acb00000000000000000000000000000000000000000000000000000000815260040160405180910390fd5b60008203610cb4576040517f586e5acb00000000000000000000000000000000000000000000000000000000815260040160405180910390fd5b3373ffffffffffffffffffffffffffffffffffffffff168573ffffffffffffffffffffffffffffffffffffffff1603610d19576040517f87fd17ca00000000000000000000000000000000000000000000000000000000815260040160405180910390fd5b60016000815480929190610d2c90613796565b91905055905060008060008381526020019081526020016000209050338160000160006101000a81548173ffffffffffffffffffffffffffffffffffffffff021916908373ffffffffffffffffffffffffffffffffffffffff160217905550858160010160006101000a81548173ffffffffffffffffffffffffffffffffffffffff021916908373ffffffffffffffffffffffffffffffffffffffff16021790555084816006018190555083816007018190555082816008018190555060008160030160006101000a81548160ff02191690836004811115610e1157610e10613441565b5b02179055508573ffffffffffffffffffffffffffffffffffffffff163373ffffffffffffffffffffffffffffffffffffffff16837fcc50a4e95294d36f3e612eabd37417678a3c52eb30d18039a0b2ed5cff4cfc0f60405160405180910390a450949350505050565b82600073ffffffffffffffffffffffffffffffffffffffff1660008083815260200190815260200160002060000160009054906101000a900473ffffffffffffffffffffffffffffffffffffffff1673ffffffffffffffffffffffffffffffffffffffff1603610f16576040517ff1d80ab100000000000000000000000000000000000000000000000000000000815260040160405180910390fd5b8360008082815260200190815260200160002060010160009054906101000a900473ffffffffffffffffffffffffffffffffffffffff1673ffffffffffffffffffffffffffffffffffffffff163373ffffffffffffffffffffffffffffffffffffffff1614610fb1576040517f6b7809b900000000000000000000000000000000000000000000000000000000815260040160405180910390fd5b846003600080600084815260200190815260200160002060030160009054906101000a900460ff169050816004811115610fee57610fed613441565b5b81600481111561100157611000613441565b5b146110455781816040517fcbdafbe700000000000000000000000000000000000000000000000000000000815260040161103c9291906136c4565b60405180910390fd5b60008060008a8152602001908152602001600020905060008888905003611098576040517fce4424fc00000000000000000000000000000000000000000000000000000000815260040160405180910390fd5b80600b0160009054906101000a900460ff16156110e1576040517f9281f2ed00000000000000000000000000000000000000000000000000000000815260040160405180910390fd5b878782600d0191826110f4929190613a24565b50600181600b0160006101000a81548160ff0219169083151502179055508060070154426111229190613762565b81600a01819055503373ffffffffffffffffffffffffffffffffffffffff16897fffc82210ead175bc01cffb6656c5325b5e99b5fbbbb3a04ea39a4325aa2e09d98a8a604051611173929190613b41565b60405180910390a3505050505050505050565b600080600080848152602001908152602001600020905060008160050154036111b35760009150506111cb565b806006015481600501546111c79190613762565b9150505b919050565b80600073ffffffffffffffffffffffffffffffffffffffff1660008083815260200190815260200160002060000160009054906101000a900473ffffffffffffffffffffffffffffffffffffffff1673ffffffffffffffffffffffffffffffffffffffff160361126c576040517ff1d80ab100000000000000000000000000000000000000000000000000000000815260040160405180910390fd5b8160008082815260200190815260200160002060000160009054906101000a900473ffffffffffffffffffffffffffffffffffffffff1673ffffffffffffffffffffffffffffffffffffffff163373ffffffffffffffffffffffffffffffffffffffff1614611307576040517fd6d90f8900000000000000000000000000000000000000000000000000000000815260040160405180910390fd5b826003600080600084815260200190815260200160002060030160009054906101000a900460ff16905081600481111561134457611343613441565b5b81600481111561135757611356613441565b5b1461139b5781816040517fcbdafbe70000000000000000000000000000000000000000000000000000000081526004016113929291906136c4565b60405180910390fd5b60008060008881526020019081526020016000209050600081600a0181905550600081600b0160006101000a81548160ff0219169083151502179055506040518060200160405280600081525081600c0190816113f89190613b65565b506040518060200160405280600081525081600d0190816114199190613b65565b5060028160030160006101000a81548160ff0219169083600481111561144257611441613441565b5b02179055503373ffffffffffffffffffffffffffffffffffffffff16877f24668b0e4d62eac56ad9f77a4c581f31e7cbb1bb73f0e3d078332b75c4c5aab960405160405180910390a350505050505050565b82600073ffffffffffffffffffffffffffffffffffffffff1660008083815260200190815260200160002060000160009054906101000a900473ffffffffffffffffffffffffffffffffffffffff1673ffffffffffffffffffffffffffffffffffffffff1603611530576040517ff1d80ab100000000000000000000000000000000000000000000000000000000815260040160405180910390fd5b8360008082815260200190815260200160002060000160009054906101000a900473ffffffffffffffffffffffffffffffffffffffff1673ffffffffffffffffffffffffffffffffffffffff163373ffffffffffffffffffffffffffffffffffffffff16146115cb576040517fd6d90f8900000000000000000000000000000000000000000000000000000000815260040160405180910390fd5b846002600080600084815260200190815260200160002060030160009054906101000a900460ff16905081600481111561160857611607613441565b5b81600481111561161b5761161a613441565b5b1461165f5781816040517fcbdafbe70000000000000000000000000000000000000000000000000000000081526004016116569291906136c4565b60405180910390fd5b6000878790500361169c576040517fce4424fc00000000000000000000000000000000000000000000000000000000815260040160405180910390fd5b60008060008a815260200190815260200160002090508060070154426116c29190613762565b81600a0181905550600081600b0160006101000a81548160ff021916908315150217905550878782600c0191826116fa929190613a24565b506040518060200160405280600081525081600d01908161171b9190613b65565b5060038160030160006101000a81548160ff0219169083600481111561174457611743613441565b5b02179055503373ffffffffffffffffffffffffffffffffffffffff16897f484989fc2b3d411a833f937aee1d0e0dcdfaaf8d4e2217fde6682c7773ea35a883600a01548b8b60405161179893929190613c37565b60405180910390a3505050505050505050565b60015481565b6117b961311d565b600073ffffffffffffffffffffffffffffffffffffffff1660008084815260200190815260200160002060000160009054906101000a900473ffffffffffffffffffffffffffffffffffffffff1673ffffffffffffffffffffffffffffffffffffffff1603611854576040517ff1d80ab100000000000000000000000000000000000000000000000000000000815260040160405180910390fd5b600080838152602001908152602001600020604051806101c00160405290816000820160009054906101000a900473ffffffffffffffffffffffffffffffffffffffff1673ffffffffffffffffffffffffffffffffffffffff1673ffffffffffffffffffffffffffffffffffffffff1681526020016001820160009054906101000a900473ffffffffffffffffffffffffffffffffffffffff1673ffffffffffffffffffffffffffffffffffffffff1673ffffffffffffffffffffffffffffffffffffffff168152602001600282015481526020016003820160009054906101000a900460ff16600481111561194d5761194c613441565b5b600481111561195f5761195e613441565b5b815260200160048201805461197390613847565b80601f016020809104026020016040519081016040528092919081815260200182805461199f90613847565b80156119ec5780601f106119c1576101008083540402835291602001916119ec565b820191906000526020600020905b8154815290600101906020018083116119cf57829003601f168201915b505050505081526020016005820154815260200160068201548152602001600782015481526020016008820154815260200160098201548152602001600a8201548152602001600b820160009054906101000a900460ff16151515158152602001600c82018054611a5c90613847565b80601f0160208091040260200160405190810160405280929190818152602001828054611a8890613847565b8015611ad55780601f10611aaa57610100808354040283529160200191611ad5565b820191906000526020600020905b815481529060010190602001808311611ab857829003601f168201915b50505050508152602001600d82018054611aee90613847565b80601f0160208091040260200160405190810160405280929190818152602001828054611b1a90613847565b8015611b675780601f10611b3c57610100808354040283529160200191611b67565b820191906000526020600020905b815481529060010190602001808311611b4a57829003601f168201915b5050505050815250509050919050565b600080600080848152602001908152602001600020905060036004811115611ba257611ba1613441565b5b8160030160009054906101000a900460ff166004811115611bc657611bc5613441565b5b14611bd5576000915050611be1565b80600a01544210159150505b919050565b80600073ffffffffffffffffffffffffffffffffffffffff1660008083815260200190815260200160002060000160009054906101000a900473ffffffffffffffffffffffffffffffffffffffff1673ffffffffffffffffffffffffffffffffffffffff1603611c82576040517ff1d80ab100000000000000000000000000000000000000000000000000000000815260040160405180910390fd5b8160008082815260200190815260200160002060000160009054906101000a900473ffffffffffffffffffffffffffffffffffffffff1673ffffffffffffffffffffffffffffffffffffffff163373ffffffffffffffffffffffffffffffffffffffff1614611d1d576040517fd6d90f8900000000000000000000000000000000000000000000000000000000815260040160405180910390fd5b8260008060008084815260200190815260200160002060030160009054906101000a900460ff169050816004811115611d5957611d58613441565b5b816004811115611d6c57611d6b613441565b5b14611db05781816040517fcbdafbe7000000000000000000000000000000000000000000000000000000008152600401611da79291906136c4565b60405180910390fd5b60003403611dea576040517f56316e8700000000000000000000000000000000000000000000000000000000815260040160405180910390fd5b60008060008881526020019081526020016000209050348160020181905550806008015442611e199190613762565b816009018190555060018160030160006101000a81548160ff02191690836004811115611e4957611e48613441565b5b02179055503373ffffffffffffffffffffffffffffffffffffffff16877f1599c0fcf897af5babc2bfcf707f5dc050f841b044d97c3251ecec35b9abf80b34604051611e959190613343565b60405180910390a350505050505050565b80600073ffffffffffffffffffffffffffffffffffffffff1660008083815260200190815260200160002060000160009054906101000a900473ffffffffffffffffffffffffffffffffffffffff1673ffffffffffffffffffffffffffffffffffffffff1603611f42576040517ff1d80ab100000000000000000000000000000000000000000000000000000000815260040160405180910390fd5b8160008082815260200190815260200160002060000160009054906101000a900473ffffffffffffffffffffffffffffffffffffffff1673ffffffffffffffffffffffffffffffffffffffff163373ffffffffffffffffffffffffffffffffffffffff1614611fdd576040517fd6d90f8900000000000000000000000000000000000000000000000000000000815260040160405180910390fd5b826002600080600084815260200190815260200160002060030160009054906101000a900460ff16905081600481111561201a57612019613441565b5b81600481111561202d5761202c613441565b5b146120715781816040517fcbdafbe70000000000000000000000000000000000000000000000000000000081526004016120689291906136c4565b60405180910390fd5b61207961304b565b6000806000888152602001908152602001600020905060008160020154905060048260030160006101000a81548160ff021916908360048111156120c0576120bf613441565b5b02179055506000826002018190555060008260010160009054906101000a900473ffffffffffffffffffffffffffffffffffffffff1673ffffffffffffffffffffffffffffffffffffffff16826040516121199061371e565b60006040518083038185875af1925050503d8060008114612156576040519150601f19603f3d011682016040523d82523d6000602084013e61215b565b606091505b5050905080612196576040517f90b8ec1800000000000000000000000000000000000000000000000000000000815260040160405180910390fd5b3373ffffffffffffffffffffffffffffffffffffffff16897f7060996319a743911fa38fcb4f926382972b1bcd6abeea1bd65adeb620d5dfdf846040516121dd9190613343565b60405180910390a35050506121f061306e565b505050505050565b80600073ffffffffffffffffffffffffffffffffffffffff1660008083815260200190815260200160002060000160009054906101000a900473ffffffffffffffffffffffffffffffffffffffff1673ffffffffffffffffffffffffffffffffffffffff1603612294576040517ff1d80ab100000000000000000000000000000000000000000000000000000000815260040160405180910390fd5b816003600080600084815260200190815260200160002060030160009054906101000a900460ff1690508160048111156122d1576122d0613441565b5b8160048111156122e4576122e3613441565b5b146123285781816040517fcbdafbe700000000000000000000000000000000000000000000000000000000815260040161231f9291906136c4565b60405180910390fd5b61233061304b565b6000806000878152602001908152602001600020905080600a0154421015612384576040517fe10499fd00000000000000000000000000000000000000000000000000000000815260040160405180910390fd5b60008160020154905060048260030160006101000a81548160ff021916908360048111156123b5576123b4613441565b5b02179055506000826002018190555081600b0160009054906101000a900460ff16156124f75760008260010160009054906101000a900473ffffffffffffffffffffffffffffffffffffffff1673ffffffffffffffffffffffffffffffffffffffff16826040516124259061371e565b60006040518083038185875af1925050503d8060008114612462576040519150601f19603f3d011682016040523d82523d6000602084013e612467565b606091505b50509050806124a2576040517f90b8ec1800000000000000000000000000000000000000000000000000000000815260040160405180910390fd5b3373ffffffffffffffffffffffffffffffffffffffff16887f1c6251189d28f9499308a6d68eafce0846d50537d4640a3b33658ed13bc7bf92846040516124e99190613343565b60405180910390a35061260f565b60008260000160009054906101000a900473ffffffffffffffffffffffffffffffffffffffff1673ffffffffffffffffffffffffffffffffffffffff16826040516125419061371e565b60006040518083038185875af1925050503d806000811461257e576040519150601f19603f3d011682016040523d82523d6000602084013e612583565b606091505b50509050806125be576040517f90b8ec1800000000000000000000000000000000000000000000000000000000815260040160405180910390fd5b3373ffffffffffffffffffffffffffffffffffffffff16887f702bf5885db1707237529d768fb693d24be27f93b1f8500ed4514dc6860be3b7846040516126059190613343565b60405180910390a3505b505061261961306e565b5050505050565b82600073ffffffffffffffffffffffffffffffffffffffff1660008083815260200190815260200160002060000160009054906101000a900473ffffffffffffffffffffffffffffffffffffffff1673ffffffffffffffffffffffffffffffffffffffff16036126bc576040517ff1d80ab100000000000000000000000000000000000000000000000000000000815260040160405180910390fd5b8360008082815260200190815260200160002060010160009054906101000a900473ffffffffffffffffffffffffffffffffffffffff1673ffffffffffffffffffffffffffffffffffffffff163373ffffffffffffffffffffffffffffffffffffffff1614612757576040517f6b7809b900000000000000000000000000000000000000000000000000000000815260040160405180910390fd5b846001600080600084815260200190815260200160002060030160009054906101000a900460ff16905081600481111561279457612793613441565b5b8160048111156127a7576127a6613441565b5b146127eb5781816040517fcbdafbe70000000000000000000000000000000000000000000000000000000081526004016127e29291906136c4565b60405180910390fd5b60008060008a815260200190815260200160002090508060090154421061283e576040517feab966d700000000000000000000000000000000000000000000000000000000815260040160405180910390fd5b6000888890500361287b576040517fce4424fc00000000000000000000000000000000000000000000000000000000815260040160405180910390fd5b878782600401918261288e929190613a24565b5042816005018190555060028160030160006101000a81548160ff021916908360048111156128c0576128bf613441565b5b02179055503373ffffffffffffffffffffffffffffffffffffffff16897fd5d9bc882dc95f198786a74e52a0b87e49a07c80921b74821ba374339e394d308a8a60405161290e929190613b41565b60405180910390a3505050505050505050565b80600073ffffffffffffffffffffffffffffffffffffffff1660008083815260200190815260200160002060000160009054906101000a900473ffffffffffffffffffffffffffffffffffffffff1673ffffffffffffffffffffffffffffffffffffffff16036129bd576040517ff1d80ab100000000000000000000000000000000000000000000000000000000815260040160405180910390fd5b8160008082815260200190815260200160002060000160009054906101000a900473ffffffffffffffffffffffffffffffffffffffff1673ffffffffffffffffffffffffffffffffffffffff163373ffffffffffffffffffffffffffffffffffffffff1614612a58576040517fd6d90f8900000000000000000000000000000000000000000000000000000000815260040160405180910390fd5b826001600080600084815260200190815260200160002060030160009054906101000a900460ff169050816004811115612a9557612a94613441565b5b816004811115612aa857612aa7613441565b5b14612aec5781816040517fcbdafbe7000000000000000000000000000000000000000000000000000000008152600401612ae39291906136c4565b60405180910390fd5b612af461304b565b600080600088815260200190815260200160002090508060090154421015612b48576040517fd6e1f7f200000000000000000000000000000000000000000000000000000000815260040160405180910390fd5b60008160020154905060048260030160006101000a81548160ff02191690836004811115612b7957612b78613441565b5b02179055506000826002018190555060008260000160009054906101000a900473ffffffffffffffffffffffffffffffffffffffff1673ffffffffffffffffffffffffffffffffffffffff1682604051612bd29061371e565b60006040518083038185875af1925050503d8060008114612c0f576040519150601f19603f3d011682016040523d82523d6000602084013e612c14565b606091505b5050905080612c4f576040517f90b8ec1800000000000000000000000000000000000000000000000000000000815260040160405180910390fd5b3373ffffffffffffffffffffffffffffffffffffffff16897fdb19fb28f3e1bd98931a09b28e0c217ab5008bfb3cbb1bdd406d994ad534a73584604051612c969190613343565b60405180910390a3505050612ca961306e565b505050505050565b80600073ffffffffffffffffffffffffffffffffffffffff1660008083815260200190815260200160002060000160009054906101000a900473ffffffffffffffffffffffffffffffffffffffff1673ffffffffffffffffffffffffffffffffffffffff1603612d4d576040517ff1d80ab100000000000000000000000000000000000000000000000000000000815260040160405180910390fd5b8160008082815260200190815260200160002060000160009054906101000a900473ffffffffffffffffffffffffffffffffffffffff1673ffffffffffffffffffffffffffffffffffffffff163373ffffffffffffffffffffffffffffffffffffffff1614612de8576040517fd6d90f8900000000000000000000000000000000000000000000000000000000815260040160405180910390fd5b826003600080600084815260200190815260200160002060030160009054906101000a900460ff169050816004811115612e2557612e24613441565b5b816004811115612e3857612e37613441565b5b14612e7c5781816040517fcbdafbe7000000000000000000000000000000000000000000000000000000008152600401612e739291906136c4565b60405180910390fd5b612e8461304b565b6000806000888152602001908152602001600020905080600b0160009054906101000a900460ff16612ee2576040517f786feefa00000000000000000000000000000000000000000000000000000000815260040160405180910390fd5b60008160020154905060048260030160006101000a81548160ff02191690836004811115612f1357612f12613441565b5b02179055506000826002018190555060008260010160009054906101000a900473ffffffffffffffffffffffffffffffffffffffff1673ffffffffffffffffffffffffffffffffffffffff1682604051612f6c9061371e565b60006040518083038185875af1925050503d8060008114612fa9576040519150601f19603f3d011682016040523d82523d6000602084013e612fae565b606091505b5050905080612fe9576040517f90b8ec1800000000000000000000000000000000000000000000000000000000815260040160405180910390fd5b3373ffffffffffffffffffffffffffffffffffffffff16897fd893591818d7ee5d7f43ae2850930284eda0d8cb2fcf540b3ba554e861df012d846040516130309190613343565b60405180910390a350505061304361306e565b505050505050565b613053613089565b60026130656130606130ca565b6130f5565b60000181905550565b600161308061307b6130ca565b6130f5565b60000181905550565b6130916130ff565b156130c8576040517f3ee5aeb500000000000000000000000000000000000000000000000000000000815260040160405180910390fd5b565b60007f9b779b17422d0df92223018b32b4d1fa46e071723d6817e2486d003becc55f0060001b905090565b6000819050919050565b6000600261311361310e6130ca565b6130f5565b6000015414905090565b604051806101c00160405280600073ffffffffffffffffffffffffffffffffffffffff168152602001600073ffffffffffffffffffffffffffffffffffffffff168152602001600081526020016000600481111561317e5761317d613441565b5b81526020016060815260200160008152602001600081526020016000815260200160008152602001600081526020016000815260200160001515815260200160608152602001606081525090565b600080fd5b600080fd5b6000819050919050565b6131e9816131d6565b81146131f457600080fd5b50565b600081359050613206816131e0565b92915050565b600060208284031215613222576132216131cc565b5b6000613230848285016131f7565b91505092915050565b60008115159050919050565b61324e81613239565b82525050565b60006020820190506132696000830184613245565b92915050565b600073ffffffffffffffffffffffffffffffffffffffff82169050919050565b600061329a8261326f565b9050919050565b6132aa8161328f565b81146132b557600080fd5b50565b6000813590506132c7816132a1565b92915050565b600080600080608085870312156132e7576132e66131cc565b5b60006132f5878288016132b8565b9450506020613306878288016131f7565b9350506040613317878288016131f7565b9250506060613328878288016131f7565b91505092959194509250565b61333d816131d6565b82525050565b60006020820190506133586000830184613334565b92915050565b600080fd5b600080fd5b600080fd5b60008083601f8401126133835761338261335e565b5b8235905067ffffffffffffffff8111156133a05761339f613363565b5b6020830191508360018202830111156133bc576133bb613368565b5b9250929050565b6000806000604084860312156133dc576133db6131cc565b5b60006133ea868287016131f7565b935050602084013567ffffffffffffffff81111561340b5761340a6131d1565b5b6134178682870161336d565b92509250509250925092565b61342c8161328f565b82525050565b61343b816131d6565b82525050565b7f4e487b7100000000000000000000000000000000000000000000000000000000600052602160045260246000fd5b6005811061348157613480613441565b5b50565b600081905061349282613470565b919050565b60006134a282613484565b9050919050565b6134b281613497565b82525050565b600081519050919050565b600082825260208201905092915050565b60005b838110156134f25780820151818401526020810190506134d7565b60008484015250505050565b6000601f19601f8301169050919050565b600061351a826134b8565b61352481856134c3565b93506135348185602086016134d4565b61353d816134fe565b840191505092915050565b61355181613239565b82525050565b60006101c0830160008301516135706000860182613423565b5060208301516135836020860182613423565b5060408301516135966040860182613432565b5060608301516135a960608601826134a9565b50608083015184820360808601526135c1828261350f565b91505060a08301516135d660a0860182613432565b5060c08301516135e960c0860182613432565b5060e08301516135fc60e0860182613432565b50610100830151613611610100860182613432565b50610120830151613626610120860182613432565b5061014083015161363b610140860182613432565b50610160830151613650610160860182613548565b5061018083015184820361018086015261366a828261350f565b9150506101a08301518482036101a0860152613686828261350f565b9150508091505092915050565b600060208201905081810360008301526136ad8184613557565b905092915050565b6136be81613497565b82525050565b60006040820190506136d960008301856136b5565b6136e660208301846136b5565b9392505050565b600081905092915050565b50565b60006137086000836136ed565b9150613713826136f8565b600082019050919050565b6000613729826136fb565b9150819050919050565b7f4e487b7100000000000000000000000000000000000000000000000000000000600052601160045260246000fd5b600061376d826131d6565b9150613778836131d6565b92508282019050808211156137905761378f613733565b5b92915050565b60006137a1826131d6565b91507fffffffffffffffffffffffffffffffffffffffffffffffffffffffffffffffff82036137d3576137d2613733565b5b600182019050919050565b600082905092915050565b7f4e487b7100000000000000000000000000000000000000000000000000000000600052604160045260246000fd5b7f4e487b7100000000000000000000000000000000000000000000000000000000600052602260045260246000fd5b6000600282049050600182168061385f57607f821691505b60208210810361387257613871613818565b5b50919050565b60008190508160005260206000209050919050565b60006020601f8301049050919050565b600082821b905092915050565b6000600883026138da7fffffffffffffffffffffffffffffffffffffffffffffffffffffffffffffffff8261389d565b6138e4868361389d565b95508019841693508086168417925050509392505050565b6000819050919050565b600061392161391c613917846131d6565b6138fc565b6131d6565b9050919050565b6000819050919050565b61393b83613906565b61394f61394782613928565b8484546138aa565b825550505050565b600090565b613964613957565b61396f818484613932565b505050565b5b818110156139935761398860008261395c565b600181019050613975565b5050565b601f8211156139d8576139a981613878565b6139b28461388d565b810160208510156139c1578190505b6139d56139cd8561388d565b830182613974565b50505b505050565b600082821c905092915050565b60006139fb600019846008026139dd565b1980831691505092915050565b6000613a1483836139ea565b9150826002028217905092915050565b613a2e83836137de565b67ffffffffffffffff811115613a4757613a466137e9565b5b613a518254613847565b613a5c828285613997565b6000601f831160018114613a8b5760008415613a79578287013590505b613a838582613a08565b865550613aeb565b601f198416613a9986613878565b60005b82811015613ac157848901358255600182019150602085019450602081019050613a9c565b86831015613ade5784890135613ada601f8916826139ea565b8355505b6001600288020188555050505b50505050505050565b600082825260208201905092915050565b82818337600083830152505050565b6000613b208385613af4565b9350613b2d838584613b05565b613b36836134fe565b840190509392505050565b60006020820190508181036000830152613b5c818486613b14565b90509392505050565b613b6e826134b8565b67ffffffffffffffff811115613b8757613b866137e9565b5b613b918254613847565b613b9c828285613997565b600060209050601f831160018114613bcf5760008415613bbd578287015190505b613bc78582613a08565b865550613c2f565b601f198416613bdd86613878565b60005b82811015613c0557848901518255600182019150602085019450602081019050613be0565b86831015613c225784890151613c1e601f8916826139ea565b8355505b6001600288020188555050505b505050505050565b6000604082019050613c4c6000830186613334565b8181036020830152613c5f818486613b14565b905094935050505056fea2646970667358221220052b9c28a774eccd97f754b5ebcbdf6c7cd2ada3358ac4dd2cdc0e90380a83ba64736f6c634300081c0033",
  "linkReferences": {},
  "deployedLinkReferences": {}
}